{
  "_format": "hh-sol-artifact-1",
  "contractName": "LiquidityVault",
  "sourceName": "contracts/LiquidityVault.sol",
  "abi": [
    {
      "inputs": [
        {
          "internalType": "address",
          "name": "_token",
          "type": "address"
        },
        {
          "internalType": "address",
          "name": "_admin",
          "type": "address"
        },
        {
          "internalType": "address",
          "name": "_guardian",
          "type": "address"
        },
        {
          "internalType": "uint256",
          "name": "_freezeDuration",
          "type": "uint256"
        },
        {
          "internalType": "uint256",
          "name": "_maxWithdrawBps",
          "type": "uint256"
        }
      ],
      "stateMutability": "nonpayable",
      "type": "constructor"
    },
    {
      "inputs": [],
      "name": "AccessControlBadConfirmation",
      "type": "error"
    },
    {
      "inputs": [
        {
          "internalType": "address",
          "name": "account",
          "type": "address"
        },
        {
          "internalType": "bytes32",
          "name": "neededRole",
          "type": "bytes32"
        }
      ],
      "name": "AccessControlUnauthorizedAccount",
      "type": "error"
    },
    {
      "inputs": [
        {
          "internalType": "uint256",
          "name": "requested",
          "type": "uint256"
        },
        {
          "internalType": "uint256",
          "name": "maxAllowed",
          "type": "uint256"
        }
      ],
      "name": "ExceedsMaxWithdraw",
      "type": "error"
    },
    {
      "inputs": [
        {
          "internalType": "uint256",
          "name": "requested",
          "type": "uint256"
        },
        {
          "internalType": "uint256",
          "name": "available",
          "type": "uint256"
        }
      ],
      "name": "InsufficientBalance",
      "type": "error"
    },
    {
      "inputs": [],
      "name": "ReentrancyGuardReentrantCall",
      "type": "error"
    },
    {
      "inputs": [
        {
          "internalType": "address",
          "name": "token",
          "type": "address"
        }
      ],
      "name": "SafeERC20FailedOperation",
      "type": "error"
    },
    {
      "inputs": [
        {
          "internalType": "uint256",
          "name": "remaining",
          "type": "uint256"
        }
      ],
      "name": "TimeLockActive",
      "type": "error"
    },
    {
      "inputs": [],
      "name": "VaultIsFrozen",
      "type": "error"
    },
    {
      "inputs": [],
      "name": "VaultNotFrozen",
      "type": "error"
    },
    {
      "inputs": [],
      "name": "ZeroAmount",
      "type": "error"
    },
    {
      "anonymous": false,
      "inputs": [
        {
          "indexed": true,
          "internalType": "address",
          "name": "user",
          "type": "address"
        },
        {
          "indexed": false,
          "internalType": "uint256",
          "name": "amount",
          "type": "uint256"
        },
        {
          "indexed": false,
          "internalType": "uint256",
          "name": "newBalance",
          "type": "uint256"
        }
      ],
      "name": "Deposit",
      "type": "event"
    },
    {
      "anonymous": false,
      "inputs": [
        {
          "indexed": true,
          "internalType": "address",
          "name": "admin",
          "type": "address"
        },
        {
          "indexed": false,
          "internalType": "uint256",
          "name": "at",
          "type": "uint256"
        }
      ],
      "name": "EmergencyUnfreeze",
      "type": "event"
    },
    {
      "anonymous": false,
      "inputs": [
        {
          "indexed": true,
          "internalType": "address",
          "name": "triggeredBy",
          "type": "address"
        },
        {
          "indexed": false,
          "internalType": "uint256",
          "name": "at",
          "type": "uint256"
        },
        {
          "indexed": false,
          "internalType": "string",
          "name": "reason",
          "type": "string"
        }
      ],
      "name": "Freeze",
      "type": "event"
    },
    {
      "anonymous": false,
      "inputs": [
        {
          "indexed": false,
          "internalType": "uint256",
          "name": "oldDuration",
          "type": "uint256"
        },
        {
          "indexed": false,
          "internalType": "uint256",
          "name": "newDuration",
          "type": "uint256"
        }
      ],
      "name": "FreezeDurationUpdated",
      "type": "event"
    },
    {
      "anonymous": false,
      "inputs": [
        {
          "indexed": false,
          "internalType": "uint256",
          "name": "oldBps",
          "type": "uint256"
        },
        {
          "indexed": false,
          "internalType": "uint256",
          "name": "newBps",
          "type": "uint256"
        }
      ],
      "name": "MaxWithdrawBpsUpdated",
      "type": "event"
    },
    {
      "anonymous": false,
      "inputs": [
        {
          "indexed": true,
          "internalType": "bytes32",
          "name": "role",
          "type": "bytes32"
        },
        {
          "indexed": true,
          "internalType": "bytes32",
          "name": "previousAdminRole",
          "type": "bytes32"
        },
        {
          "indexed": true,
          "internalType": "bytes32",
          "name": "newAdminRole",
          "type": "bytes32"
        }
      ],
      "name": "RoleAdminChanged",
      "type": "event"
    },
    {
      "anonymous": false,
      "inputs": [
        {
          "indexed": true,
          "internalType": "bytes32",
          "name": "role",
          "type": "bytes32"
        },
        {
          "indexed": true,
          "internalType": "address",
          "name": "account",
          "type": "address"
        },
        {
          "indexed": true,
          "internalType": "address",
          "name": "sender",
          "type": "address"
        }
      ],
      "name": "RoleGranted",
      "type": "event"
    },
    {
      "anonymous": false,
      "inputs": [
        {
          "indexed": true,
          "internalType": "bytes32",
          "name": "role",
          "type": "bytes32"
        },
        {
          "indexed": true,
          "internalType": "address",
          "name": "account",
          "type": "address"
        },
        {
          "indexed": true,
          "internalType": "address",
          "name": "sender",
          "type": "address"
        }
      ],
      "name": "RoleRevoked",
      "type": "event"
    },
    {
      "anonymous": false,
      "inputs": [
        {
          "indexed": true,
          "internalType": "address",
          "name": "user",
          "type": "address"
        },
        {
          "indexed": false,
          "internalType": "uint256",
          "name": "withdrawCount",
          "type": "uint256"
        },
        {
          "indexed": false,
          "internalType": "uint256",
          "name": "amount",
          "type": "uint256"
        }
      ],
      "name": "SuspiciousActivity",
      "type": "event"
    },
    {
      "anonymous": false,
      "inputs": [
        {
          "indexed": true,
          "internalType": "address",
          "name": "triggeredBy",
          "type": "address"
        },
        {
          "indexed": false,
          "internalType": "uint256",
          "name": "at",
          "type": "uint256"
        }
      ],
      "name": "Unfreeze",
      "type": "event"
    },
    {
      "anonymous": false,
      "inputs": [
        {
          "indexed": true,
          "internalType": "address",
          "name": "user",
          "type": "address"
        },
        {
          "indexed": false,
          "internalType": "uint256",
          "name": "amount",
          "type": "uint256"
        },
        {
          "indexed": false,
          "internalType": "uint256",
          "name": "newBalance",
          "type": "uint256"
        }
      ],
      "name": "Withdraw",
      "type": "event"
    },
    {
      "inputs": [],
      "name": "DEFAULT_ADMIN_ROLE",
      "outputs": [
        {
          "internalType": "bytes32",
          "name": "",
          "type": "bytes32"
        }
      ],
      "stateMutability": "view",
      "type": "function"
    },
    {
      "inputs": [],
      "name": "GUARDIAN_ROLE",
      "outputs": [
        {
          "internalType": "bytes32",
          "name": "",
          "type": "bytes32"
        }
      ],
      "stateMutability": "view",
      "type": "function"
    },
    {
      "inputs": [
        {
          "internalType": "address",
          "name": "",
          "type": "address"
        }
      ],
      "name": "balances",
      "outputs": [
        {
          "internalType": "uint256",
          "name": "",
          "type": "uint256"
        }
      ],
      "stateMutability": "view",
      "type": "function"
    },
    {
      "inputs": [
        {
          "internalType": "uint256",
          "name": "amount",
          "type": "uint256"
        }
      ],
      "name": "deposit",
      "outputs": [],
      "stateMutability": "nonpayable",
      "type": "function"
    },
    {
      "inputs": [],
      "name": "emergencyUnfreeze",
      "outputs": [],
      "stateMutability": "nonpayable",
      "type": "function"
    },
    {
      "inputs": [
        {
          "internalType": "string",
          "name": "reason",
          "type": "string"
        }
      ],
      "name": "freeze",
      "outputs": [],
      "stateMutability": "nonpayable",
      "type": "function"
    },
    {
      "inputs": [],
      "name": "freezeDuration",
      "outputs": [
        {
          "internalType": "uint256",
          "name": "",
          "type": "uint256"
        }
      ],
      "stateMutability": "view",
      "type": "function"
    },
    {
      "inputs": [],
      "name": "frozen",
      "outputs": [
        {
          "internalType": "bool",
          "name": "",
          "type": "bool"
        }
      ],
      "stateMutability": "view",
      "type": "function"
    },
    {
      "inputs": [],
      "name": "frozenAt",
      "outputs": [
        {
          "internalType": "uint256",
          "name": "",
          "type": "uint256"
        }
      ],
      "stateMutability": "view",
      "type": "function"
    },
    {
      "inputs": [
        {
          "internalType": "bytes32",
          "name": "role",
          "type": "bytes32"
        }
      ],
      "name": "getRoleAdmin",
      "outputs": [
        {
          "internalType": "bytes32",
          "name": "",
          "type": "bytes32"
        }
      ],
      "stateMutability": "view",
      "type": "function"
    },
    {
      "inputs": [
        {
          "internalType": "bytes32",
          "name": "role",
          "type": "bytes32"
        },
        {
          "internalType": "address",
          "name": "account",
          "type": "address"
        }
      ],
      "name": "grantRole",
      "outputs": [],
      "stateMutability": "nonpayable",
      "type": "function"
    },
    {
      "inputs": [
        {
          "internalType": "bytes32",
          "name": "role",
          "type": "bytes32"
        },
        {
          "internalType": "address",
          "name": "account",
          "type": "address"
        }
      ],
      "name": "hasRole",
      "outputs": [
        {
          "internalType": "bool",
          "name": "",
          "type": "bool"
        }
      ],
      "stateMutability": "view",
      "type": "function"
    },
    {
      "inputs": [
        {
          "internalType": "address",
          "name": "",
          "type": "address"
        }
      ],
      "name": "lastWithdrawTime",
      "outputs": [
        {
          "internalType": "uint256",
          "name": "",
          "type": "uint256"
        }
      ],
      "stateMutability": "view",
      "type": "function"
    },
    {
      "inputs": [],
      "name": "maxWithdrawAmount",
      "outputs": [
        {
          "internalType": "uint256",
          "name": "",
          "type": "uint256"
        }
      ],
      "stateMutability": "view",
      "type": "function"
    },
    {
      "inputs": [],
      "name": "maxWithdrawBps",
      "outputs": [
        {
          "internalType": "uint256",
          "name": "",
          "type": "uint256"
        }
      ],
      "stateMutability": "view",
      "type": "function"
    },
    {
      "inputs": [
        {
          "internalType": "bytes32",
          "name": "role",
          "type": "bytes32"
        },
        {
          "internalType": "address",
          "name": "callerConfirmation",
          "type": "address"
        }
      ],
      "name": "renounceRole",
      "outputs": [],
      "stateMutability": "nonpayable",
      "type": "function"
    },
    {
      "inputs": [
        {
          "internalType": "bytes32",
          "name": "role",
          "type": "bytes32"
        },
        {
          "internalType": "address",
          "name": "account",
          "type": "address"
        }
      ],
      "name": "revokeRole",
      "outputs": [],
      "stateMutability": "nonpayable",
      "type": "function"
    },
    {
      "inputs": [
        {
          "internalType": "uint256",
          "name": "newDuration",
          "type": "uint256"
        }
      ],
      "name": "setFreezeDuration",
      "outputs": [],
      "stateMutability": "nonpayable",
      "type": "function"
    },
    {
      "inputs": [
        {
          "internalType": "uint256",
          "name": "newBps",
          "type": "uint256"
        }
      ],
      "name": "setMaxWithdrawBps",
      "outputs": [],
      "stateMutability": "nonpayable",
      "type": "function"
    },
    {
      "inputs": [
        {
          "internalType": "bytes4",
          "name": "interfaceId",
          "type": "bytes4"
        }
      ],
      "name": "supportsInterface",
      "outputs": [
        {
          "internalType": "bool",
          "name": "",
          "type": "bool"
        }
      ],
      "stateMutability": "view",
      "type": "function"
    },
    {
      "inputs": [],
      "name": "timeLockRemaining",
      "outputs": [
        {
          "internalType": "uint256",
          "name": "",
          "type": "uint256"
        }
      ],
      "stateMutability": "view",
      "type": "function"
    },
    {
      "inputs": [],
      "name": "token",
      "outputs": [
        {
          "internalType": "contract IERC20",
          "name": "",
          "type": "address"
        }
      ],
      "stateMutability": "view",
      "type": "function"
    },
    {
      "inputs": [],
      "name": "totalDeposits",
      "outputs": [
        {
          "internalType": "uint256",
          "name": "",
          "type": "uint256"
        }
      ],
      "stateMutability": "view",
      "type": "function"
    },
    {
      "inputs": [],
      "name": "unfreeze",
      "outputs": [],
      "stateMutability": "nonpayable",
      "type": "function"
    },
    {
      "inputs": [
        {
          "internalType": "uint256",
          "name": "amount",
          "type": "uint256"
        }
      ],
      "name": "withdraw",
      "outputs": [],
      "stateMutability": "nonpayable",
      "type": "function"
    },
    {
      "inputs": [
        {
          "internalType": "address",
          "name": "",
          "type": "address"
        }
      ],
      "name": "withdrawCount60s",
      "outputs": [
        {
          "internalType": "uint256",
          "name": "",
          "type": "uint256"
        }
      ],
      "stateMutability": "view",
      "type": "function"
    }
  ],
  "bytecode": "0x60a06040523480156200001157600080fd5b50604051620013c5380380620013c58339810160408190526200003491620002a1565b60017f9b779b17422d0df92223018b32b4d1fa46e071723d6817e2486d003becc55f00556001600160a01b038516620000a45760405162461bcd60e51b815260206004820152600d60248201526c24b73b30b634b2103a37b5b2b760991b60448201526064015b60405180910390fd5b6001600160a01b038416620000ec5760405162461bcd60e51b815260206004820152600d60248201526c24b73b30b634b21030b236b4b760991b60448201526064016200009b565b6001600160a01b038316620001375760405162461bcd60e51b815260206004820152601060248201526f24b73b30b634b21033bab0b93234b0b760811b60448201526064016200009b565b612710811115620001785760405162461bcd60e51b815260206004820152600a602482015269425053203e203130302560b01b60448201526064016200009b565b6001600160a01b038516608052600582905560068190556200019c600085620001d5565b50620001c97f55435dd261a4b9b3364963f7738a7a662ad9c84396d64be3365284bb7f0a504184620001d5565b505050505050620002fe565b6000828152602081815260408083206001600160a01b038516845290915281205460ff166200027a576000838152602081815260408083206001600160a01b03861684529091529020805460ff19166001179055620002313390565b6001600160a01b0316826001600160a01b0316847f2f8788117e7eff1d82e926ec794901d17c78024a50270940304540a733656f0d60405160405180910390a45060016200027e565b5060005b92915050565b80516001600160a01b03811681146200029c57600080fd5b919050565b600080600080600060a08688031215620002ba57600080fd5b620002c58662000284565b9450620002d56020870162000284565b9350620002e56040870162000284565b6060870151608090970151959894975095949392505050565b60805161109d620003286000396000818161037e015281816105fe0152610910015261109d6000f3fe608060405234801561001057600080fd5b506004361061018e5760003560e01c80636963f603116100de578063b6b55f2511610097578063de60758c11610071578063de60758c14610356578063e6a86fb01461035e578063f516440c14610371578063fc0c546a1461037957600080fd5b8063b6b55f2514610328578063d547741f1461033b578063d5a154f41461034e57600080fd5b80636963f603146102d65780636a28f000146102e95780636ca2aa95146102f15780637d8820971461030457806391d148541461030d578063a217fddf1461032057600080fd5b806327e235e31161014b578063364e18bb11610125578063364e18bb1461029157806336568abe1461029a578063440991bd146102ad5780634f88f3b2146102b657600080fd5b806327e235e3146102495780632e1a7d4d146102695780632f2ff15d1461027e57600080fd5b806301ffc9a714610193578063054f7d9c146101bb5780631031ec31146101c85780631b499842146101f6578063248a9ca3146101ff57806324ea54f414610222575b600080fd5b6101a66101a1366004610e84565b6103b8565b60405190151581526020015b60405180910390f35b6003546101a69060ff1681565b6101e86101d6366004610ed1565b60076020526000908152604090205481565b6040519081526020016101b2565b6101e860065481565b6101e861020d366004610eec565b60009081526020819052604090206001015490565b6101e87f55435dd261a4b9b3364963f7738a7a662ad9c84396d64be3365284bb7f0a504181565b6101e8610257366004610ed1565b60016020526000908152604090205481565b61027c610277366004610eec565b6103ef565b005b61027c61028c366004610f05565b61069a565b6101e860045481565b61027c6102a8366004610f05565b6106c5565b6101e860055481565b6101e86102c4366004610ed1565b60086020526000908152604090205481565b61027c6102e4366004610eec565b6106fd565b61027c610789565b61027c6102ff366004610eec565b610840565b6101e860025481565b6101a661031b366004610f05565b61088d565b6101e8600081565b61027c610336366004610eec565b6108b6565b61027c610349366004610f05565b6109ba565b61027c6109df565b6101e8610a84565b61027c61036c366004610f31565b610ace565b6101e8610b57565b6103a07f000000000000000000000000000000000000000000000000000000000000000081565b6040516001600160a01b0390911681526020016101b2565b60006001600160e01b03198216637965db0b60e01b14806103e957506301ffc9a760e01b6001600160e01b03198316145b92915050565b6103f7610b8b565b60035460ff161561041b57604051635506aa3160e11b815260040160405180910390fd5b8060000361043c57604051631f2a200560e01b815260040160405180910390fd5b3360009081526001602052604090205481111561049157336000908152600160205260409081902054905163cf47918160e01b8152610488918391600401918252602082015260400190565b60405180910390fd5b600254156104e75760006127106006546002546104ae9190610fb9565b6104b89190610fd0565b9050808211156104e55760405163087da9fd60e01b81526004810183905260248101829052604401610488565b505b33600090815260076020526040902054603c906105049042610ff2565b101561052f5733600090815260086020526040812080549161052583611005565b9190505550610543565b336000908152600860205260409020600190555b3360009081526007602090815260408083204290556008909152902054600310156105b357336000818152600860209081526040918290205482519081529081018490527f18d0d4b74ba655d30c3227ece0c1df2e88a0512c91d8996255f77f56a8325bbb910160405180910390a25b33600090815260016020526040812080548392906105d2908490610ff2565b9250508190555080600260008282546105eb9190610ff2565b9091555061062590506001600160a01b037f0000000000000000000000000000000000000000000000000000000000000000163383610bb9565b33600081815260016020908152604091829020548251858152918201527ff279e6a1f5e320cca91135676d9cb6e44ca8a08c0b88342bcdb1144f6511b56891015b60405180910390a261069760017f9b779b17422d0df92223018b32b4d1fa46e071723d6817e2486d003becc55f0055565b50565b6000828152602081905260409020600101546106b581610bee565b6106bf8383610bf8565b50505050565b6001600160a01b03811633146106ee5760405163334bd91960e11b815260040160405180910390fd5b6106f88282610c8a565b505050565b600061070881610bee565b6127108211156107475760405162461bcd60e51b815260206004820152600a602482015269425053203e203130302560b01b6044820152606401610488565b60065460408051918252602082018490527fa66f6ad37305f4d5b15cb15df7fe560c558e4113b2a258ddace8e1ba686562a1910160405180910390a150600655565b600061079481610bee565b60035460ff166107b75760405163c8f0d5d360e01b815260040160405180910390fd5b6000600454426107c79190610ff2565b90506005548110156107fd57806005546107e19190610ff2565b6040516351ea2bff60e11b815260040161048891815260200190565b6003805460ff1916905560405142815233907f2cfce4af01bcb9d6cf6c84ee1b7c491100b8695368264146a94d71e10a63083f9060200160405180910390a25050565b600061084b81610bee565b60055460408051918252602082018490527f6294061bfb8686e3745a4b980f8ebfed57d239da3c1799b1d27afd61c31b5a3b910160405180910390a150600555565b6000918252602082815260408084206001600160a01b0393909316845291905290205460ff1690565b6108be610b8b565b60035460ff16156108e257604051635506aa3160e11b815260040160405180910390fd5b8060000361090357604051631f2a200560e01b815260040160405180910390fd5b6109386001600160a01b037f000000000000000000000000000000000000000000000000000000000000000016333084610cf5565b336000908152600160205260408120805483929061095790849061101e565b925050819055508060026000828254610970919061101e565b909155505033600081815260016020908152604091829020548251858152918201527f90890809c654f11d6e72a28fa60149770a0d11ec6c92319d6ceb2bb0a4ea1a159101610666565b6000828152602081905260409020600101546109d581610bee565b6106bf8383610c8a565b60006109ea81610bee565b60035460ff16610a0d5760405163c8f0d5d360e01b815260040160405180910390fd5b6003805460ff1916905560405142815233907f2cfce4af01bcb9d6cf6c84ee1b7c491100b8695368264146a94d71e10a63083f9060200160405180910390a260405142815233907f2516244e7ecedc19d0600db6366bb2d7fa14bdbea2cc43bafa80520761d381ef9060200160405180910390a250565b60035460009060ff16610a975750600090565b600060045442610aa79190610ff2565b90506005548110610aba57600091505090565b80600554610ac89190610ff2565b91505090565b7f55435dd261a4b9b3364963f7738a7a662ad9c84396d64be3365284bb7f0a5041610af881610bee565b60035460ff166106f8576003805460ff1916600117905542600481905560405133917f368db150b99f3c8ed5f064bcb60701f517b946579e4462846643bdd50787450591610b4a919087908790611031565b60405180910390a2505050565b6000600254600003610b695750600090565b612710600654600254610b7c9190610fb9565b610b869190610fd0565b905090565b610b93610d2b565b60027f9b779b17422d0df92223018b32b4d1fa46e071723d6817e2486d003becc55f0055565b610bc68383836001610d6f565b6106f857604051635274afe760e01b81526001600160a01b0384166004820152602401610488565b6106978133610dd5565b6000610c04838361088d565b610c82576000838152602081815260408083206001600160a01b03861684529091529020805460ff19166001179055610c3a3390565b6001600160a01b0316826001600160a01b0316847f2f8788117e7eff1d82e926ec794901d17c78024a50270940304540a733656f0d60405160405180910390a45060016103e9565b5060006103e9565b6000610c96838361088d565b15610c82576000838152602081815260408083206001600160a01b0386168085529252808320805460ff1916905551339286917ff6391f5c32d9c69d2a47ea670b442974b53935d1edc7fd64eb21e047a839171b9190a45060016103e9565b610d03848484846001610e12565b6106bf57604051635274afe760e01b81526001600160a01b0385166004820152602401610488565b7f9b779b17422d0df92223018b32b4d1fa46e071723d6817e2486d003becc55f0054600203610d6d57604051633ee5aeb560e01b815260040160405180910390fd5b565b60405163a9059cbb60e01b60008181526001600160a01b038616600452602485905291602083604481808b5af192506001600051148316610dc9578383151615610dbc573d6000823e3d81fd5b6000873b113d1516831692505b60405250949350505050565b610ddf828261088d565b610e0e5760405163e2517d3f60e01b81526001600160a01b038216600482015260248101839052604401610488565b5050565b6040516323b872dd60e01b60008181526001600160a01b038781166004528616602452604485905291602083606481808c5af192506001600051148316610e72578383151615610e65573d6000823e3d81fd5b6000883b113d1516831692505b60405250600060605295945050505050565b600060208284031215610e9657600080fd5b81356001600160e01b031981168114610eae57600080fd5b9392505050565b80356001600160a01b0381168114610ecc57600080fd5b919050565b600060208284031215610ee357600080fd5b610eae82610eb5565b600060208284031215610efe57600080fd5b5035919050565b60008060408385031215610f1857600080fd5b82359150610f2860208401610eb5565b90509250929050565b60008060208385031215610f4457600080fd5b823567ffffffffffffffff80821115610f5c57600080fd5b818501915085601f830112610f7057600080fd5b813581811115610f7f57600080fd5b866020828501011115610f9157600080fd5b60209290920196919550909350505050565b634e487b7160e01b600052601160045260246000fd5b80820281158282048414176103e9576103e9610fa3565b600082610fed57634e487b7160e01b600052601260045260246000fd5b500490565b818103818111156103e9576103e9610fa3565b60006001820161101757611017610fa3565b5060010190565b808201808211156103e9576103e9610fa3565b83815260406020820152816040820152818360608301376000818301606090810191909152601f909201601f191601019291505056fea26469706673582212206545438f5cf31bad8b00570562e636b85a7c312e36970bfa33c05280320160dd64736f6c63430008180033",
  "linkReferences": {},
  "deployedLinkReferences": {}
}