{
  "_format": "hh-sol-artifact-1",
  "contractName": "LiquidityVault",
  "sourceName": "contracts/LiquidityVault.sol",
  "abi": [
    {
      "inputs": [
        {
          "internalType": "address",
          "name": "_token",
          "type": "address"
        },
        {
          "internalType": "address",
          "name": "_admin",
          "type": "address"
        },
        {
          "internalType": "address",
          "name": "_guardian",
          "type": "address"
        }
      ],
      "stateMutability": "nonpayable",
      "type": "constructor"
    },
    {
      "inputs": [],
      "name": "AccessControlBadConfirmation",
      "type": "error"
    },
    {
      "inputs": [
        {
          "internalType": "address",
          "name": "account",
          "type": "address"
        },
        {
          "internalType": "bytes32",
          "name": "neededRole",
          "type": "bytes32"
        }
      ],
      "name": "AccessControlUnauthorizedAccount",
      "type": "error"
    },
    {
      "inputs": [
        {
          "internalType": "uint256",
          "name": "requested",
          "type": "uint256"
        },
        {
          "internalType": "uint256",
          "name": "maxAllowed",
          "type": "uint256"
        }
      ],
      "name": "ExceedsMaxWithdraw",
      "type": "error"
    },
    {
      "inputs": [
        {
          "internalType": "uint256",
          "name": "requested",
          "type": "uint256"
        },
        {
          "internalType": "uint256",
          "name": "available",
          "type": "uint256"
        }
      ],
      "name": "InsufficientBalance",
      "type": "error"
    },
    {
      "inputs": [],
      "name": "ReentrancyGuardReentrantCall",
      "type": "error"
    },
    {
      "inputs": [
        {
          "internalType": "address",
          "name": "token",
          "type": "address"
        }
      ],
      "name": "SafeERC20FailedOperation",
      "type": "error"
    },
    {
      "inputs": [],
      "name": "VaultIsFrozen",
      "type": "error"
    },
    {
      "inputs": [],
      "name": "VaultNotFrozen",
      "type": "error"
    },
    {
      "inputs": [],
      "name": "ZeroAmount",
      "type": "error"
    },
    {
      "anonymous": false,
      "inputs": [
        {
          "indexed": true,
          "internalType": "address",
          "name": "user",
          "type": "address"
        },
        {
          "indexed": false,
          "internalType": "uint256",
          "name": "amount",
          "type": "uint256"
        },
        {
          "indexed": false,
          "internalType": "uint256",
          "name": "newBalance",
          "type": "uint256"
        }
      ],
      "name": "Deposit",
      "type": "event"
    },
    {
      "anonymous": false,
      "inputs": [
        {
          "indexed": true,
          "internalType": "address",
          "name": "admin",
          "type": "address"
        },
        {
          "indexed": false,
          "internalType": "uint256",
          "name": "at",
          "type": "uint256"
        }
      ],
      "name": "EmergencyUnfreeze",
      "type": "event"
    },
    {
      "anonymous": false,
      "inputs": [
        {
          "indexed": true,
          "internalType": "address",
          "name": "triggeredBy",
          "type": "address"
        },
        {
          "indexed": false,
          "internalType": "uint256",
          "name": "at",
          "type": "uint256"
        },
        {
          "indexed": false,
          "internalType": "string",
          "name": "reason",
          "type": "string"
        }
      ],
      "name": "Freeze",
      "type": "event"
    },
    {
      "anonymous": false,
      "inputs": [
        {
          "indexed": false,
          "internalType": "uint256",
          "name": "oldBps",
          "type": "uint256"
        },
        {
          "indexed": false,
          "internalType": "uint256",
          "name": "newBps",
          "type": "uint256"
        }
      ],
      "name": "MaxWithdrawBpsUpdated",
      "type": "event"
    },
    {
      "anonymous": false,
      "inputs": [
        {
          "indexed": true,
          "internalType": "bytes32",
          "name": "role",
          "type": "bytes32"
        },
        {
          "indexed": true,
          "internalType": "bytes32",
          "name": "previousAdminRole",
          "type": "bytes32"
        },
        {
          "indexed": true,
          "internalType": "bytes32",
          "name": "newAdminRole",
          "type": "bytes32"
        }
      ],
      "name": "RoleAdminChanged",
      "type": "event"
    },
    {
      "anonymous": false,
      "inputs": [
        {
          "indexed": true,
          "internalType": "bytes32",
          "name": "role",
          "type": "bytes32"
        },
        {
          "indexed": true,
          "internalType": "address",
          "name": "account",
          "type": "address"
        },
        {
          "indexed": true,
          "internalType": "address",
          "name": "sender",
          "type": "address"
        }
      ],
      "name": "RoleGranted",
      "type": "event"
    },
    {
      "anonymous": false,
      "inputs": [
        {
          "indexed": true,
          "internalType": "bytes32",
          "name": "role",
          "type": "bytes32"
        },
        {
          "indexed": true,
          "internalType": "address",
          "name": "account",
          "type": "address"
        },
        {
          "indexed": true,
          "internalType": "address",
          "name": "sender",
          "type": "address"
        }
      ],
      "name": "RoleRevoked",
      "type": "event"
    },
    {
      "anonymous": false,
      "inputs": [
        {
          "indexed": true,
          "internalType": "address",
          "name": "triggeredBy",
          "type": "address"
        },
        {
          "indexed": false,
          "internalType": "uint256",
          "name": "at",
          "type": "uint256"
        }
      ],
      "name": "Unfreeze",
      "type": "event"
    },
    {
      "anonymous": false,
      "inputs": [
        {
          "indexed": true,
          "internalType": "address",
          "name": "user",
          "type": "address"
        },
        {
          "indexed": false,
          "internalType": "uint256",
          "name": "amount",
          "type": "uint256"
        },
        {
          "indexed": false,
          "internalType": "uint256",
          "name": "newBalance",
          "type": "uint256"
        }
      ],
      "name": "Withdraw",
      "type": "event"
    },
    {
      "inputs": [],
      "name": "DEFAULT_ADMIN_ROLE",
      "outputs": [
        {
          "internalType": "bytes32",
          "name": "",
          "type": "bytes32"
        }
      ],
      "stateMutability": "view",
      "type": "function"
    },
    {
      "inputs": [],
      "name": "GUARDIAN_ROLE",
      "outputs": [
        {
          "internalType": "bytes32",
          "name": "",
          "type": "bytes32"
        }
      ],
      "stateMutability": "view",
      "type": "function"
    },
    {
      "inputs": [
        {
          "internalType": "address",
          "name": "",
          "type": "address"
        }
      ],
      "name": "balances",
      "outputs": [
        {
          "internalType": "uint256",
          "name": "",
          "type": "uint256"
        }
      ],
      "stateMutability": "view",
      "type": "function"
    },
    {
      "inputs": [
        {
          "internalType": "uint256",
          "name": "amount",
          "type": "uint256"
        }
      ],
      "name": "deposit",
      "outputs": [],
      "stateMutability": "nonpayable",
      "type": "function"
    },
    {
      "inputs": [],
      "name": "emergencyUnfreeze",
      "outputs": [],
      "stateMutability": "nonpayable",
      "type": "function"
    },
    {
      "inputs": [
        {
          "internalType": "address",
          "name": "_token",
          "type": "address"
        },
        {
          "internalType": "address",
          "name": "to",
          "type": "address"
        },
        {
          "internalType": "uint256",
          "name": "amount",
          "type": "uint256"
        }
      ],
      "name": "emergencyWithdraw",
      "outputs": [],
      "stateMutability": "nonpayable",
      "type": "function"
    },
    {
      "inputs": [
        {
          "internalType": "string",
          "name": "reason",
          "type": "string"
        }
      ],
      "name": "freeze",
      "outputs": [],
      "stateMutability": "nonpayable",
      "type": "function"
    },
    {
      "inputs": [],
      "name": "freezeDuration",
      "outputs": [
        {
          "internalType": "uint256",
          "name": "",
          "type": "uint256"
        }
      ],
      "stateMutability": "view",
      "type": "function"
    },
    {
      "inputs": [],
      "name": "frozen",
      "outputs": [
        {
          "internalType": "bool",
          "name": "",
          "type": "bool"
        }
      ],
      "stateMutability": "view",
      "type": "function"
    },
    {
      "inputs": [],
      "name": "frozenAt",
      "outputs": [
        {
          "internalType": "uint256",
          "name": "",
          "type": "uint256"
        }
      ],
      "stateMutability": "view",
      "type": "function"
    },
    {
      "inputs": [
        {
          "internalType": "bytes32",
          "name": "role",
          "type": "bytes32"
        }
      ],
      "name": "getRoleAdmin",
      "outputs": [
        {
          "internalType": "bytes32",
          "name": "",
          "type": "bytes32"
        }
      ],
      "stateMutability": "view",
      "type": "function"
    },
    {
      "inputs": [
        {
          "internalType": "bytes32",
          "name": "role",
          "type": "bytes32"
        },
        {
          "internalType": "address",
          "name": "account",
          "type": "address"
        }
      ],
      "name": "grantRole",
      "outputs": [],
      "stateMutability": "nonpayable",
      "type": "function"
    },
    {
      "inputs": [
        {
          "internalType": "bytes32",
          "name": "role",
          "type": "bytes32"
        },
        {
          "internalType": "address",
          "name": "account",
          "type": "address"
        }
      ],
      "name": "hasRole",
      "outputs": [
        {
          "internalType": "bool",
          "name": "",
          "type": "bool"
        }
      ],
      "stateMutability": "view",
      "type": "function"
    },
    {
      "inputs": [],
      "name": "maxWithdrawAmount",
      "outputs": [
        {
          "internalType": "uint256",
          "name": "",
          "type": "uint256"
        }
      ],
      "stateMutability": "view",
      "type": "function"
    },
    {
      "inputs": [],
      "name": "maxWithdrawBps",
      "outputs": [
        {
          "internalType": "uint256",
          "name": "",
          "type": "uint256"
        }
      ],
      "stateMutability": "view",
      "type": "function"
    },
    {
      "inputs": [
        {
          "internalType": "bytes32",
          "name": "role",
          "type": "bytes32"
        },
        {
          "internalType": "address",
          "name": "callerConfirmation",
          "type": "address"
        }
      ],
      "name": "renounceRole",
      "outputs": [],
      "stateMutability": "nonpayable",
      "type": "function"
    },
    {
      "inputs": [
        {
          "internalType": "bytes32",
          "name": "role",
          "type": "bytes32"
        },
        {
          "internalType": "address",
          "name": "account",
          "type": "address"
        }
      ],
      "name": "revokeRole",
      "outputs": [],
      "stateMutability": "nonpayable",
      "type": "function"
    },
    {
      "inputs": [
        {
          "internalType": "uint256",
          "name": "duration",
          "type": "uint256"
        }
      ],
      "name": "setFreezeDuration",
      "outputs": [],
      "stateMutability": "nonpayable",
      "type": "function"
    },
    {
      "inputs": [
        {
          "internalType": "uint256",
          "name": "bps",
          "type": "uint256"
        }
      ],
      "name": "setMaxWithdrawBps",
      "outputs": [],
      "stateMutability": "nonpayable",
      "type": "function"
    },
    {
      "inputs": [
        {
          "internalType": "bytes4",
          "name": "interfaceId",
          "type": "bytes4"
        }
      ],
      "name": "supportsInterface",
      "outputs": [
        {
          "internalType": "bool",
          "name": "",
          "type": "bool"
        }
      ],
      "stateMutability": "view",
      "type": "function"
    },
    {
      "inputs": [],
      "name": "timeLockRemaining",
      "outputs": [
        {
          "internalType": "uint256",
          "name": "",
          "type": "uint256"
        }
      ],
      "stateMutability": "view",
      "type": "function"
    },
    {
      "inputs": [],
      "name": "token",
      "outputs": [
        {
          "internalType": "contract IERC20",
          "name": "",
          "type": "address"
        }
      ],
      "stateMutability": "view",
      "type": "function"
    },
    {
      "inputs": [],
      "name": "totalDeposits",
      "outputs": [
        {
          "internalType": "uint256",
          "name": "",
          "type": "uint256"
        }
      ],
      "stateMutability": "view",
      "type": "function"
    },
    {
      "inputs": [],
      "name": "unfreeze",
      "outputs": [],
      "stateMutability": "nonpayable",
      "type": "function"
    },
    {
      "inputs": [
        {
          "internalType": "uint256",
          "name": "amount",
          "type": "uint256"
        }
      ],
      "name": "withdraw",
      "outputs": [],
      "stateMutability": "nonpayable",
      "type": "function"
    }
  ],
  "bytecode": "0x60a0604052610e10600555610bb86006553480156200001c575f80fd5b50604051620011e2380380620011e28339810160408190526200003f916200025a565b60017f9b779b17422d0df92223018b32b4d1fa46e071723d6817e2486d003becc55f00556001600160a01b038316620000af5760405162461bcd60e51b815260206004820152600d60248201526c24b73b30b634b2103a37b5b2b760991b60448201526064015b60405180910390fd5b6001600160a01b038216620000f75760405162461bcd60e51b815260206004820152600d60248201526c24b73b30b634b21030b236b4b760991b6044820152606401620000a6565b6001600160a01b038116620001425760405162461bcd60e51b815260206004820152601060248201526f24b73b30b634b21033bab0b93234b0b760811b6044820152606401620000a6565b6001600160a01b0383166080526200015b5f8362000192565b50620001887f55435dd261a4b9b3364963f7738a7a662ad9c84396d64be3365284bb7f0a50418262000192565b50505050620002a1565b5f828152602081815260408083206001600160a01b038516845290915281205460ff1662000235575f838152602081815260408083206001600160a01b03861684529091529020805460ff19166001179055620001ec3390565b6001600160a01b0316826001600160a01b0316847f2f8788117e7eff1d82e926ec794901d17c78024a50270940304540a733656f0d60405160405180910390a450600162000238565b505f5b92915050565b80516001600160a01b038116811462000255575f80fd5b919050565b5f805f606084860312156200026d575f80fd5b62000278846200023e565b925062000288602085016200023e565b915062000298604085016200023e565b90509250925092565b608051610f13620002cf5f395f818161032c015281816104dc0152818161077301526108ef0152610f135ff3fe608060405234801561000f575f80fd5b506004361061016d575f3560e01c80636a28f000116100d9578063d547741f11610093578063e63ea4081161006e578063e63ea408146102f9578063e6a86fb01461030c578063f516440c1461031f578063fc0c546a14610327575f80fd5b8063d547741f146102d6578063d5a154f4146102e9578063de60758c146102f1575f80fd5b80636a28f000146102855780636ca2aa951461028d5780637d882097146102a057806391d14854146102a9578063a217fddf146102bc578063b6b55f25146102c3575f80fd5b80632e1a7d4d1161012a5780632e1a7d4d146102255780632f2ff15d1461023a578063364e18bb1461024d57806336568abe14610256578063440991bd146102695780636963f60314610272575f80fd5b806301ffc9a714610171578063054f7d9c146101995780631b499842146101a6578063248a9ca3146101bd57806324ea54f4146101df57806327e235e314610206575b5f80fd5b61018461017f366004610cd0565b610366565b60405190151581526020015b60405180910390f35b6003546101849060ff1681565b6101af60065481565b604051908152602001610190565b6101af6101cb366004610cfe565b5f9081526020819052604090206001015490565b6101af7f55435dd261a4b9b3364963f7738a7a662ad9c84396d64be3365284bb7f0a504181565b6101af610214366004610d30565b60016020525f908152604090205481565b610238610233366004610cfe565b61039c565b005b610238610248366004610d49565b610564565b6101af60045481565b610238610264366004610d49565b61058e565b6101af60055481565b610238610280366004610cfe565b6105c6565b610238610652565b61023861029b366004610cfe565b6106e2565b6101af60025481565b6101846102b7366004610d49565b6106f2565b6101af5f81565b6102386102d1366004610cfe565b61071a565b6102386102e4366004610d49565b610833565b610238610857565b6101af61089d565b610238610307366004610d73565b6108e3565b61023861031a366004610dac565b610951565b6101af6109da565b61034e7f000000000000000000000000000000000000000000000000000000000000000081565b6040516001600160a01b039091168152602001610190565b5f6001600160e01b03198216637965db0b60e01b148061039657506301ffc9a760e01b6001600160e01b03198316145b92915050565b6103a4610a0b565b60035460ff16156103c857604051635506aa3160e11b815260040160405180910390fd5b805f036103e857604051631f2a200560e01b815260040160405180910390fd5b335f9081526001602052604090205481111561043b57335f908152600160205260409081902054905163cf47918160e01b8152610432918391600401918252602082015260400190565b60405180910390fd5b5f61271060065460025461044f9190610e2c565b6104599190610e43565b90505f60025411801561046b57508082115b156104935760405163087da9fd60e01b81526004810183905260248101829052604401610432565b335f90815260016020526040812080548492906104b1908490610e62565b925050819055508160025f8282546104c99190610e62565b9091555061050390506001600160a01b037f0000000000000000000000000000000000000000000000000000000000000000163384610a26565b335f81815260016020908152604091829020548251868152918201527ff279e6a1f5e320cca91135676d9cb6e44ca8a08c0b88342bcdb1144f6511b568910160405180910390a25061056160015f80516020610ebe83398151915255565b50565b5f8281526020819052604090206001015461057e81610a5b565b6105888383610a65565b50505050565b6001600160a01b03811633146105b75760405163334bd91960e11b815260040160405180910390fd5b6105c18282610af4565b505050565b5f6105d081610a5b565b6127108211156106105760405162461bcd60e51b815260206004820152600b60248201526a496e76616c69642062707360a81b6044820152606401610432565b60065460408051918252602082018490527fa66f6ad37305f4d5b15cb15df7fe560c558e4113b2a258ddace8e1ba686562a1910160405180910390a150600655565b7f55435dd261a4b9b3364963f7738a7a662ad9c84396d64be3365284bb7f0a504161067c81610a5b565b60035460ff1661069f5760405163c8f0d5d360e01b815260040160405180910390fd5b6003805460ff1916905560405142815233907f2cfce4af01bcb9d6cf6c84ee1b7c491100b8695368264146a94d71e10a63083f906020015b60405180910390a250565b5f6106ec81610a5b565b50600555565b5f918252602082815260408084206001600160a01b0393909316845291905290205460ff1690565b610722610a0b565b60035460ff161561074657604051635506aa3160e11b815260040160405180910390fd5b805f0361076657604051631f2a200560e01b815260040160405180910390fd5b61079b6001600160a01b037f000000000000000000000000000000000000000000000000000000000000000016333084610b5d565b335f90815260016020526040812080548392906107b9908490610e75565b925050819055508060025f8282546107d19190610e75565b9091555050335f81815260016020908152604091829020548251858152918201527f90890809c654f11d6e72a28fa60149770a0d11ec6c92319d6ceb2bb0a4ea1a15910160405180910390a261056160015f80516020610ebe83398151915255565b5f8281526020819052604090206001015461084d81610a5b565b6105888383610af4565b5f61086181610a5b565b6003805460ff1916905560405142815233907f2516244e7ecedc19d0600db6366bb2d7fa14bdbea2cc43bafa80520761d381ef906020016106d7565b6003545f9060ff166108ae57505f90565b5f600454426108bd9190610e62565b905060055481106108cf575f91505090565b806005546108dd9190610e62565b91505090565b5f6108ed81610a5b565b7f00000000000000000000000000000000000000000000000000000000000000006001600160a01b0316846001600160a01b03160361093d578160025f8282546109379190610e62565b90915550505b6105886001600160a01b0385168484610a26565b7f55435dd261a4b9b3364963f7738a7a662ad9c84396d64be3365284bb7f0a504161097b81610a5b565b60035460ff166105c1576003805460ff1916600117905542600481905560405133917f368db150b99f3c8ed5f064bcb60701f517b946579e4462846643bdd507874505916109cd919087908790610e88565b60405180910390a2505050565b5f6002545f036109e957505f90565b6127106006546002546109fc9190610e2c565b610a069190610e43565b905090565b610a13610b93565b60025f80516020610ebe83398151915255565b610a338383836001610bc4565b6105c157604051635274afe760e01b81526001600160a01b0384166004820152602401610432565b6105618133610c26565b5f610a7083836106f2565b610aed575f838152602081815260408083206001600160a01b03861684529091529020805460ff19166001179055610aa53390565b6001600160a01b0316826001600160a01b0316847f2f8788117e7eff1d82e926ec794901d17c78024a50270940304540a733656f0d60405160405180910390a4506001610396565b505f610396565b5f610aff83836106f2565b15610aed575f838152602081815260408083206001600160a01b0386168085529252808320805460ff1916905551339286917ff6391f5c32d9c69d2a47ea670b442974b53935d1edc7fd64eb21e047a839171b9190a4506001610396565b610b6b848484846001610c63565b61058857604051635274afe760e01b81526001600160a01b0385166004820152602401610432565b5f80516020610ebe83398151915254600203610bc257604051633ee5aeb560e01b815260040160405180910390fd5b565b60405163a9059cbb60e01b5f8181526001600160a01b038616600452602485905291602083604481808b5af1925060015f51148316610c1a578383151615610c0e573d5f823e3d81fd5b5f873b113d1516831692505b60405250949350505050565b610c3082826106f2565b610c5f5760405163e2517d3f60e01b81526001600160a01b038216600482015260248101839052604401610432565b5050565b6040516323b872dd60e01b5f8181526001600160a01b038781166004528616602452604485905291602083606481808c5af1925060015f51148316610cbf578383151615610cb3573d5f823e3d81fd5b5f883b113d1516831692505b604052505f60605295945050505050565b5f60208284031215610ce0575f80fd5b81356001600160e01b031981168114610cf7575f80fd5b9392505050565b5f60208284031215610d0e575f80fd5b5035919050565b80356001600160a01b0381168114610d2b575f80fd5b919050565b5f60208284031215610d40575f80fd5b610cf782610d15565b5f8060408385031215610d5a575f80fd5b82359150610d6a60208401610d15565b90509250929050565b5f805f60608486031215610d85575f80fd5b610d8e84610d15565b9250610d9c60208501610d15565b9150604084013590509250925092565b5f8060208385031215610dbd575f80fd5b823567ffffffffffffffff80821115610dd4575f80fd5b818501915085601f830112610de7575f80fd5b813581811115610df5575f80fd5b866020828501011115610e06575f80fd5b60209290920196919550909350505050565b634e487b7160e01b5f52601160045260245ffd5b808202811582820484141761039657610396610e18565b5f82610e5d57634e487b7160e01b5f52601260045260245ffd5b500490565b8181038181111561039657610396610e18565b8082018082111561039657610396610e18565b83815260406020820152816040820152818360608301375f818301606090810191909152601f909201601f191601019291505056fe9b779b17422d0df92223018b32b4d1fa46e071723d6817e2486d003becc55f00a2646970667358221220f9cdf2f8fa90ea01f19a41084398b6090d3730aee3d58c41f244004363b3cbcb64736f6c63430008180033",
  "linkReferences": {},
  "deployedLinkReferences": {}
}